:020000040800F2
:1000000010110020FD4500084D2200084F22000875
:100010005122000853220008552200080000000069
:10002000000000000000000000000000572200084F
:1000300059220008000000005B2200085D22000831
:100040004546000845460008454600084546000864
:100050004546000845460008652200084546000858
:100060004546000845460008454600084546000844
:100070004546000845460008454600084546000834
:100080004546000845460008454600084546000824
:100090004546000845460008454600084546000814
:1000A0004546000845460008454600084546000804
:1000B00045460008454600084546000845460008F4
:1000C00045460008454600084546000845460008E4
:1000D000454600089F22000845460008454600089E
:1000E0006F220008454600084546000845460008BE
:1000F00045460008454600084546000845460008B4
:1001000045460008454600084546000845460008A3
:100110004546000845460008454600084546000893
:100120004546000845460008454600084546000883
:100130004546000845460008454600084546000873
:100140004546000845460008454600084546000863
:100150004546000845460008454600084546000853
:100160004546000845460008454600084546000843
:1001700045460008454600084546000800000000C6
:100180004546000845460008454600084546000823
:1001900045460008454600084546000800000000A6
:0C01A0004546000845460008454600089A
:1001C0000348044B834202D0034B03B118477047E6
:1001D0006000002060000020000000000548064B81
:1001E0001B1AD90F01EBA301491002D0034B03B135
:1001F00018477047600000206000002000000000E9
:1002000010B5064C237843B9FFF7DAFF044B13B15E
:100210000448AFF300800123237010BD600000206C
:1002200000000000C853000808B5044B1BB1044986
:100230000448AFF30080BDE80840CFE700000000AD
:1002400064000020C853000870B50F4B0F4DAB423F
:10025000A3EB050607D0B610002455F8043B013483
:100260009847A642F9D805F0AFF8094D094B5E1B37
:10027000AB424FEAA60606D0002455F8043B0134F1
:100280009847A642F9D870BD50570008505700084B
:1002900050570008545700080000000000000000FC
:1002A000000000000000000000000000000000004E
:1002B000000000000000000000000000000000003E
:1002C00030B490F800F020F007016FF0000C10F04F
:1002D000070491F820F040F048804FF000046FF0E0
:1002E0000700D1E9002391F840F000F1080082FAFC
:1002F0004CF2A4FA8CF283FA4CF3A2FA8CF34BBBC7
:10030000D1E9022382FA4CF200F10800A4FA8CF23F
:1003100083FA4CF3A2FA8CF3E3B9D1E9042382FA0D
:100320004CF200F10800A4FA8CF283FA4CF3A2FA22
:100330008CF37BB9D1E9062301F1200182FA4CF25A
:1003400000F10800A4FA8CF283FA4CF3A2FA8CF3C1
:10035000002BC6D0002A04BF04301A4612BAB2FAE3
:1003600082F200EBD20030BC7047D1E9002304F0E8
:100370000305C4F100004FEAC50514F0040F91F81D
:1003800040F00CFA05F562EA05021CBF63EA0503BA
:1003900062464FF00004AAE7830730B547D0541EE9
:1003A000002A3ED0CAB2034601E0013C39D303F82B
:1003B000012B9D07F9D1032C2CD9CDB205EB0525D6
:1003C0000F2C05EB054535D9A4F1100222F00F0CD6
:1003D00003F1100EE6444FEA121C1A46C2E900551A
:1003E000C2E9025510327245F8D10CF1010214F045
:1003F0000C0F03EB021204F00F0C13D0ACF104034A
:1004000023F003030433134442F8045B9342FBD10B
:100410000CF003042CB1C9B21C4403F8011BA34225
:10042000FBD130BD64461346002CF4D1F9E70346F6
:100430001446C0E71A46A446E0E700BF844641EAF6
:10044000000313F003036DD1403A41D351F8043B4C
:1004500040F8043B51F8043B40F8043B51F8043B9E
:1004600040F8043B51F8043B40F8043B51F8043B8E
:1004700040F8043B51F8043B40F8043B51F8043B7E
:1004800040F8043B51F8043B40F8043B51F8043B6E
:1004900040F8043B51F8043B40F8043B51F8043B5E
:1004A00040F8043B51F8043B40F8043B51F8043B4E
:1004B00040F8043B51F8043B40F8043B51F8043B3E
:1004C00040F8043B51F8043B40F8043B403ABDD2AD
:1004D000303211D351F8043B40F8043B51F8043B4F
:1004E00040F8043B51F8043B40F8043B51F8043B0E
:1004F00040F8043B103AEDD20C3205D351F8043BDE
:1005000040F8043B043AF9D2043208D0D2071CBFA9
:1005100011F8013B00F8013B01D30B8803806046D2
:10052000704700BF082A13D38B078DD010F0030348
:100530008AD0C3F10403D21ADB071CBF11F8013BB8
:1005400000F8013B80D331F8023B20F8023B7BE707
:10055000043AD9D3013A11F8013B00F8013BF9D232
:100560000B7803704B7843708B78837060467047CC
:1005700008B410B5002A9DB0044636DB4FF4027370
:10058000ADF814304FF000031B930291069120AB9D
:1005900017D0013A4FF6FF7104920792ADF816108A
:1005A0001F9A019302A900F07DFB421C01DA8B2304
:1005B0002360029B00221A701DB0BDE8104001B0FC
:1005C00070474FF6FF7104920792ADF816101F9A0C
:1005D000019302A900F066FB431C01DA8B23236020
:1005E0001DB0BDE8104001B070478B2303604FF091
:1005F000FF30F5E70CB410B5214B00291C689CB006
:1006000038DB4FF000034FF402721B93ADF8142057
:10061000029006901FAB18D001394FF6FF7204917B
:100620000791ADF8162002A91E9A0193204600F00A
:1006300039FB421C01DA8B232360029B00221A70D3
:100640001CB0BDE8104002B070474FF6FF72049135
:100650000791ADF8162002A91E9A0193204600F0DA
:1006600021FB431C01DA8B2323601CB0BDE8104042
:1006700002B070478B2323604FF0FF30F5E700BFD7
:1006800000000020032A30B415D941EA0004A40771
:1006900084460B4604D0541E0FE0043A032A08D9BE
:1006A0001946604653F8044B5CF8045BA542F4D04D
:1006B000F1E760461946541E7AB1431E013902190A
:1006C00001E09A4209D013F8010F11F801CF6045FB
:1006D000F7D0A0EB0C0030BC7047002030BC704756
:1006E0000EB400B582B003AB816853F8042B0193BC
:1006F00000F060F802B05DF804EB03B0704700BF93
:100700000FB400B5074983B004AB086853F8042B55
:100710008168019300F04EF803B05DF804EB04B07B
:10072000704700BF000000209368013B002B9360DE
:1007300011DA10B49469A34209DB0A2907D01368BF
:10074000581C1060197008465DF8044B70475DF83E
:10075000044B00F073B91368581C106019700846F8
:10076000704700BF9BB1F8B5134406460F46541EB0
:100770005D1E01E0AC4208D014F8011F3A46304635
:10078000FFF7D2FF431CF5D1F8BD0020F8BD0020D3
:10079000704700BF936810B514461BB91846002374
:1007A000636010BD00F09AFB0023A3600023636028
:1007B00010BD00BF2DE9F04FA1B08B4691461C46FD
:1007C000049018B1036A002B00F01C81BBF80C30B8
:1007D000180740F19580DBF81030002B00F0908076
:1007E0000023CA460D9343F22003ADF839309AF83E
:1007F0000030864E07940127002B79D0D14604E0C3
:1008000019F8013F002B00F08580252BF8D1B9EBBA
:100810000A0840F0828099F80030002B68D000234D
:100820004FF0FF32CDE9092309F1010908930B9339
:100830008DF863301E9305E0089A07FA03F31A4314
:100840000892A1464C46052214F8011B304601F0DF
:100850004FF8A246831B0028EED1089BD90644BF5F
:1008600020228DF8632099F800101A0744BF2B222C
:100870008DF863202A2966D1079A1168043200296D
:100880000792C0F29A800B9199F801102E2970D02E
:100890005F4C0322204601F02BF838B1089B001B67
:1008A0004022824013430AF1010A08931AF8011BFF
:1008B00058488DF83810062201F01AF8002800F088
:1008C0008280554B002B69D007AA0092534B0498A5
:1008D0005A4608A9AFF300800390039B013307D069
:1008E0000D9B039A13440D939AF80030002B85D189
:1008F000BBF80C305B060AD40D9821B0BDE8F08F30
:100900000498594601F044F800283FF469AF4FF0CD
:10091000FF30F2E7B9EB0A08EAD00AF1FF35CDF86B
:100920001490A946049D01E0A0453ED94C465A4684
:1009300019F8011F2846FFF7F7FE02340130A4EB37
:100940000A04F1D1D4E7A1F13002092A88BFCA46CE
:100950009CD80B9B00E00134217803EB830302EB6E
:100960004303A1F13002092AF5D92E290B93A2469F
:100970008ED19AF801102A292FD1079B9AF80210DC
:100980001A6809920433002A0AF102000793B8BFDB
:100990004FF0FF338246B8BF099379E7079B0733CF
:1009A00023F00703083307939AE70D99DDF81490B5
:1009B000414499F800300D912FE7494243F002037A
:1009C0000B91089360E707AA0092144B04985A46CB
:1009D00008A901F003F903907FE7A1F13002002399
:1009E000092A09930AF1010A3FF652AF1AF8011FCA
:1009F00003EB830302EB4303A1F13002092AF5D98B
:100A0000099345E700F0D4FCE0E600BF94560008E7
:100A10009C560008A056000800000000650700086A
:100A200010B4054C8446134620685DF8044B0A4612
:100A30006146FFF7BFBE00BF00000020F8B50D46BD
:100A40001446064610B1036A002B37D0A389A26969
:100A5000A2601A0719D52369BBB122686169D31A4C
:100A6000EDB299422F4620DD0133A1680139A16022
:100A7000511C2160157062699A420DD0A389DB0771
:100A800001D50A2D08D03846F8BD2146304600F081
:100A90007FFF38B92369E0E72146304600F042FD88
:100AA0000028F0D04FF0FF37EDE72146304600F048
:100AB00039FD0028F6D122680123D6E700F078FC42
:100AC000C4E700BF10B4044C03460A4620685DF832
:100AD000044B1946FFF7B2BF000000202DE9F04794
:100AE0008F681D46AF420B680C46164636D8B1F9E2
:100AF0000CC01CF4906F0ED13D46184631462A4674
:100B000000F054FEA368DF1B2368A7602B4400207D
:100B10002360BDE8F0874A69096902EB42025F1A67
:100B200002EBD2726B1C52103B44934292BF91462F
:100B300099461A461CF4806F804611D0114600F089
:100B400057FD824600B321693A46FFF777FCA38937
:100B500023F4906343F08003A38105E02F46CCE7A4
:100B600000F078FF824658B10AEB0703A9EB0707AC
:100B7000A760C4F810A0C4F8149023602F46BCE707
:100B80002169404600F0B4FDA3890C2243F04003E4
:100B9000C8F800204FF0FF30A381BAE72DE9F04FED
:100BA0009368176883B09246002B74D04FF0000B07
:100BB0008B680A6881460C465D4645E0B4F90C3006
:100BC00013F4906F2CD0D4E90401161A01EB410202
:100BD00002EBD272711C52102944914292BF90468E
:100BE00088460A465B0539D51146484600F000FDA7
:100BF000019000283DD032462169FFF71FFCA289F1
:100C0000019B22F4906242F08002A2819819A8EB25
:100C10000606A660C4F8148023612060A8462E460C
:100C20003246594600F0C2FDDAF80810A36822687F
:100C3000A3EB08033244491BA3602260CAF80810E2
:100C400049B3D7E900B5083798461046002DF8D0CB
:100C50009D421E46B2D2A8462E46E1E701464846CE
:100C600000F0F8FE03460028D0D12169484600F084
:100C70003FFDA3890C2243F04003C9F800204FF048
:100C8000FF30A38100220023CAF80820CAF80430EC
:100C900003B0BDE8F08F00200023CAF8043003B091
:100CA000BDE8F08F2DE9F04F1C468B891D069DB0E5
:100CB00088468146934603D50B69002B00F0F180EE
:100CC0000023099343F22003ADF829309BF800304C
:100CD0007D4D03940126002B73D0DA4603E01AF809
:100CE000013F002B75D0252BF9D1BAEB0B0473D142
:100CF0009AF80020002A64D000234FF0FF32CDE99B
:100D000005230AF1010A049307938DF853301A93CF
:100D100005E0049A06FA03F31A430492A2465446E5
:100D2000052214F8011B284600F0E2FDA346431BF0
:100D30000028EED1049BD80644BF20228DF8532012
:100D400019079AF8001044BF2B228DF853202A2946
:100D500050D1039A11680432002903927CDB079179
:100D60009AF801102E295BD0584C0322204600F03F
:100D7000BFFD38B1049B001B4022824013430BF19E
:100D8000010B04931BF8011B51488DF82810062213
:100D900000F0AEFD002865D04E4B002B55D003AAC5
:100DA00000924D4B424604A94846AFF300800746E7
:100DB0007A1C06D0099B3B4409939BF80030002B1A
:100DC0008BD1B8F80C305B067AD409981DB0BDE819
:100DD000F08FBAEB0B04F4D023465A4641464846FE
:100DE000FFF77CFE0130ECD0099B9AF800202344E9
:100DF00009937FE7A1F13002092A88BFD346B1D811
:100E0000079B00E00134217803EB830302EB4303EB
:100E1000A1F13002092AF5D92E290793A346A3D1BF
:100E20009BF801102A2927D1039B9BF802101A680E
:100E300005920433002A0BF102000393B8BF4FF070
:100E4000FF338346B8BF05938EE7039B073323F038
:100E5000070308330393ADE7494243F002030791C8
:100E600004937DE703AA00921B4B424604A948461F
:100E700000F0B4FE07469BE7A1F130020023092AE7
:100E800005930BF1010B3FF66FAF1BF8011F03EB4E
:100E9000830302EB4303A1F13002092AF5D905933C
:100EA00062E7402100F0A4FBC8F80000C8F8100079
:100EB00018B14023C8F8143002E70C23C9F80030F9
:100EC0004FF0FF3082E700BF945600089C560008A0
:100ED000A056000800000000DD0A00089368002BFF
:100EE00000F0F8802DE9F04FB1F90CC01CF0080FAC
:100EF00083B0904681460C4631D00B697BB31CF021
:100F00000207D8F8006038D00027D4F828B0216A4A
:100F1000DFF8C4A23D4655452B463A4628BF534606
:100F20004846C5B1D847002840F3CA80D8F80830F1
:100F30001B1A07442D1AC8F80830002B00F0B680A1
:100F400055452B46D4F828B0216A28BF53463A4667
:100F50004846002DE6D1D6E900750836DBE7214684
:100F6000484600F015FD002840F0AF80B4F90CC0F1
:100F7000D8F800601CF00207C6D11CF0010A63D14A
:100F80002368A168574618468B46002F58D01CF49A
:100F9000007F00F0B580B9420A4600F2E1801CF4FF
:100FA000906F2FD0216962695D1A02EB420202EB59
:100FB000D2726B1C52103B44934292BF93469B46A5
:100FC0001A461CF4806F00F0EA801146484600F093
:100FD0000FFB002800F0F9802A4621690090FFF7F6
:100FE0002DFAA289009B22F4906242F08002A28135
:100FF0005819ABEB0505C4F814B02361A560206057
:10100000BB463A465146009200F0D0FBA1682368E7
:10101000009AA1EB0B011A443D46A1602260002713
:10102000D8F808305B1BAA44C8F80830002B3DD024
:101030002368A168B4F90CC018468B46002FA6D1CE
:10104000D6E900A708369EE73846BB463D460097DE
:10105000002D41D0002846D0009A2068A168D4E92C
:101060000473AA4228BF2A46B84204D901EB030AF6
:10107000524500F38580934275DC216AA76A5A467F
:101080004846B847B0F1000A1ADD009BB3EB0A03EB
:1010900000930FD00120D8F80830A3EB0A03D34403
:1010A000A5EB0A05C8F80830002BD1D1002003B009
:1010B000BDE8F08F2146484600F034FA0028EAD017
:1010C000B4F90C3043F04003A3814FF0FF3003B07C
:1010D000BDE8F08F00207047756833460836002D54
:1010E000FAD0D3F800B02A460A21584600F000FC96
:1010F000002867D00130A0EB0B0300931A46ACE741
:1011000022699A4214D36269BA4211D86FF000433F
:10111000BB4228BF3B46A56A93FBF2F3216A02FB60
:1011200003F348465246A847051EC9DD7F1B77E7F3
:10113000B94228BF39460D4618460A46514600F0C6
:1011400035FBA1682368491B2B44A160236000295B
:10115000ECD12146484600F0E5F90028E6D0AFE79B
:10116000BB463A464EE75946019200F01FFB019AF2
:10117000A3689B1AA360236813442360924684E704
:101180005946524600F012FB23685344236021461F
:10119000484600F0C7F900283FF477AF90E748468B
:1011A00000F058FC034600287FF422AF216948462E
:1011B00000F09EFAB4F90C300C22C9F8002023F09C
:1011C00080037FE76A1C009247E70C22B4F90C30D9
:1011D000C9F8002076E700BF00FCFF7F00207047C1
:1011E000024A0349034800F061BB00BF50000020E1
:1011F00025150008040000200C4B4168994210B5E9
:10120000044601D000F08EF9A168094B994202D042
:10121000204600F087F9E168064B994204D0204649
:10122000BDE8104000F07EB910BD00BF7C0000207A
:10123000E40000204C010020002070472DE9F84315
:101240002A4C2B49DFF8BC90DFF8BC80294FC4F84A
:101250003811002504230822294604F15C00264E9B
:10126000E360C4E90055C4E90455A5606566A5615D
:10127000FFF792F8214B63670822294604F1C40066
:10128000C4E90849C4E90A87C4E91A55C4E91E55E6
:101290002567C4F8CC50C4F880502663FFF77CF86B
:1012A000174BC4F8DC30294604F16803082204F522
:1012B0009670C4F88830C4E92398C4E92576C4E957
:1012C0003455C4E93855C4F8D850C4F83451C4F87A
:1012D000E850FFF761F804F1D003C4E93D98C4E990
:1012E0003F76C4F8F030BDE8F88300BF7C000020F2
:1012F000E11100082D20000851200008090001001C
:1013000012000200C51F0008ED1F0008F8B5254BAC
:10131000D3F838310646002B3CD0234FD7E90134AF
:10132000013B04D51DE05A1C04F1680419D0B4F93E
:101330000C50013B002DF6D11C4BE360C4E9015574
:10134000C4E9045565662560A5610822294604F1B3
:101350005C00FFF721F8C4E90D55C4E91255204699
:10136000F8BD3D680DB12F46D8E74FF4D671304631
:1013700000F03EF9044680B10423C0E900530C306C
:101380002946A0604FF4D0722546FFF705F83C606F
:101390002F46C3E7FFF752FFBFE70C2338603360E7
:1013A000DDE700BF7C000020500000200100FFFFAF
:1013B000036A03B17047044B044AD3F83831026220
:1013C000002BF7D13AE700BF7C000020F91100089C
:1013D000704700BF704700BF024A0349002000F079
:1013E00065BA00BF50000020DD110008024A034921
:1013F000002000F05BBA00BF500000203912000846
:10140000B1F90C302DE9F0411E070C4680463DD461
:101410004A68002A56DDE56A002D34D00022D8F84B
:101420000060C8F8002013F48052216A57D10123CC
:101430004046A847451C024666D0B4F90C30E56A20
:10144000216A580705D56368D21A636B0BB1236C08
:10145000D21A00234046A847431C42D000236360B1
:1014600023692360A389DF0400D56065616BC8F838
:10147000006041B104F14403994202D0404600F0BB
:1014800037F9002363630020BDE8F0810E69002E68
:10149000F9D09B070D6808BF4B690E6018BF002389
:1014A000AD1B8B600BE02B463246216AA76A404693
:1014B000B847B0F1000CA5EB0C05664406DD002D25
:1014C000F1DCE0E70A6C002AA5DCDCE7B4F90C30BB
:1014D00043F04003A3814FF0FF30BDE8F081626D1F
:1014E000AFE7D8F80010B4F90C301D29F0D80C4A39
:1014F000CA40D507ECD52269226000226260DA0476
:10150000B4D50029B1D0B1E7D8F80030002B94D081
:101510001D2B01D0162BD9D1C8F80060B3E700BF4E
:10152000010040200B69B3B110B5044682B008B188
:10153000036A5BB1B1F90C3013B9002002B010BDE1
:10154000204602B0BDE81040FFF75ABF0191FFF7F7
:101550002FFF0199EEE70020704700BFB8B138B502
:101560000D4A0369156804462BB10DB12B6A53B1BE
:10157000B4F90C300BB9002038BD21462846BDE82F
:101580003840FFF73DBF2846FFF712FFF0E7034A58
:101590000349044800F08AB90000002050000020F0
:1015A000251500080400002070B5104E336805466C
:1015B0000C46B3B12146284600F0F2FC431C0CD087
:1015C000C41C24F00304A04205D0211A284600F0D0
:1015D000E7FC013001D0204670BD4FF0FF342046BB
:1015E00070BD194600F0DCFC3060E3E7B801002074
:1015F0002DE9F843CD1C25F0030508350C2D38BF27
:101600000C25002D064618DBA94216D8DFF8DC8031
:1016100000F026FCD8F80420A2B1144603E0636869
:1016200022467BB11C4623685B1BF8D40B2B1FD8CA
:101630009442636854D053600CE00C233360002064
:10164000BDE8F88329463046FFF7AEFF431C044649
:1016500019D00560304600F005FC04F10B00231D95
:1016600020F00700C21A1CBF1B1AA350BDE8F88364
:1016700061199442256014BF5160C8F80410635189
:1016800063684B60E6E7D8F804701FB33C467F6898
:10169000002FFBD123683946304604EB030900F0E4
:1016A0007FFC814516D12368ED1A29463046FFF7A5
:1016B0007BFF01300ED02368D8F804202B44236030
:1016C000536883B1A34203D01A465B689C42FBD1A6
:1016D0000023B0E70C233360304600F0C3FBAEE7D5
:1016E000C8F80430B6E7C8F80470B3E7B8010020C2
:1016F000002950D038B551F8043C0C1F002BB8BF5E
:10170000E418054600F0ACFB274A13682BB1A3424E
:101710000CD92168601883422CD06360284614607D
:10172000BDE8384000F09EBBA3420FD81A465B6864
:10173000002BF9D111685018844217D02CD3636064
:1017400054602846BDE8384000F08CBB1168501842
:10175000A04214D020D8216860188342EFD11868C5
:101760005B680844C4E900035460EAE723680B445B
:101770001360E6E718685B6808442060CDE72068DE
:101780000144501883421160DBD1D3E900040144C5
:10179000C2E90014D5E770470C232B602846BDE84A
:1017A000384000F05FBB00BFBC01002088420ED96A
:1017B0008B1883420BD900EB020C002A6ED06246D4
:1017C00013F801CD02F801CD9942F9D170470F2AE3
:1017D0000FD8034602F1FF3C002A5FD00CF1010C48
:1017E000013B8C4411F8012B03F8012F6145F9D11D
:1017F000704740EA01039B0751D1A2F1100370B575
:1018000001F1200C23F00F0501F1100E00F110047E
:10181000AC441B095EF8105C44F8105C5EF80C5C8C
:1018200044F80C5C5EF8085C44F8085C5EF8045C04
:1018300044F8045C0EF1100EE64504F11004E9D101
:10184000013312F00C0F01EB031102F00F0400EB57
:10185000031328D0043C24F003064FEA940C1E44E2
:101860001C1F8E465EF8045B44F8045FB442F9D155
:101870000CF1010402F0030203EB840301EB840189
:1018800002F1FF3C4AB10CF1010C013B8C4411F810
:10189000012B03F8012F6145F9D170BD704702F1AA
:1018A000FF3C03469AE72246EAE700BF2DE9F843EA
:1018B0000746884616464FF00009D6E90154013D17
:1018C00010D4A389012B08D9B4F90E300133214675
:1018D000384602D0C04749EA0009013D6B1C04F1BB
:1018E0006804EED13668002EE7D14846BDE8F8839B
:1018F00001F0FF01102A2BDB10F0070F08D010F8C1
:10190000013B013A8B422DD010F0070F42B3F6D1C4
:10191000F0B441EA012141EA014122F007047FF0DD
:1019200000070023F0E80256083C85EA010586EA34
:10193000010685FA47F5A3FA87F586FA47F6A5FA70
:1019400087F68EB9EED1F0BC01F0FF0102F007027C
:1019500032B110F8013B013A83EA010313B1F8D127
:101960000020704701387047002D06BF3546033808
:10197000073815F0010F07D1013015F4807F02BF41
:10198000013015F4C03F0130F0BC0138704700BF92
:1019900038B52F4B1B6805460C4613B11A6A002A4E
:1019A0004BD0B4F90C3018071CD5226922B313F0C0
:1019B000010107D0616900204942A060A1613AB1EC
:1019C000002038BD980758BF6169A160002AF7D18F
:1019D000190658BF1046F4D543F04003A3814FF0D9
:1019E000FF3038BDD9062CD55A0712D4226943F0EE
:1019F0000803A381002ADAD103F42071B1F5007F36
:101A0000D5D02146284600F02FFAB4F90C302269CF
:101A1000CDE7616B51B104F14402914204D02846F4
:101A2000FFF766FEB4F90C300022626322690021E0
:101A3000C4E9002123F02403D9E71846FFF7B8FCD6
:101A4000AFE7092243F040032A60A381C7E700BF44
:101A5000000000202DE9F041144641B30AB30646C8
:101A60000D4600F0F9FA8442074602D8B4EB500F55
:101A700013D821463046FFF7BBFD804650B1BC422B
:101A80002246294628BF3A46FEF7D8FC294630466A
:101A9000FFF72EFE4046BDE8F081A8464046BDE86F
:101AA000F081A046FFF724FE4046BDE8F081BDE886
:101AB000F0411146FFF79CBD2DE9F84F92461F46B5
:101AC0000A698B68DDF828909A42B8BF1A46CAF8AE
:101AD000002091F843300C46064613B10132CAF893
:101AE0000020226891065FD5DAF800300233CAF888
:101AF0000030226812F0060F11461DD1E1689942AC
:101B0000D8BF114618DD4FF0000804F1190B05E0AD
:101B1000E568DAF80030ED1A45450CDD01235A4638
:101B200039463046C847013008F10108F0D14FF07E
:101B3000FF30BDE8F88F216894F84330003B18BFB0
:101B400001238A060AD5E1185A1C302081F8430087
:101B5000224494F8451082F84310023304F1430202
:101B600039463046C8470130E1D02368DAF80050E2
:101B7000216903F00603042BD4E902201BD08A421A
:101B800020DD4FF00008521A90441A34002501E07D
:101B9000454517DA0123224639463046C847013009
:101BA00005F10105F4D1C2E712F0060F0DD0003B9C
:101BB00018BF0123D2E7401B8A4220EAE078E2DC2A
:101BC0000028E2DC0020BDE8F88FE168DAF8003098
:101BD0009942D8BF114696DCAEE700BF2DE9F04729
:101BE000174684B00A7E0C9D0C460646984601F1C5
:101BF000430C002A35D0A2F15803D9B2202969D864
:101C0000202B67D8DFE813F0E60066006600660068
:101C10006600660066006600660066006600AC004E
:101C20007000660066006600660070006600660070
:101C30006600660021008300C60066006600B600EC
:101C40006600830066006600EC002B68226861690C
:101C5000181D286010061B6802D4520600F1E080AF
:101C600019600023E1462361CDF800803B4603AABA
:101C700021463046FFF720FF013020D023694A4635
:101C800039463046C047013019D02368E068DDF896
:101C90000C909B0718D5484516DD002504F1190A5C
:101CA00004E0E068A0EB0903AB420DDD01235246DE
:101CB00039463046C047013005F10105F1D14FF0FA
:101CC000FF3004B0BDE8F0874845B8BF484604B0CF
:101CD000BDE8F08784F84220012004F14209002386
:101CE000206184F84330BFE72A682368111D180675
:101CF000296002D4590600F1958010680146002839
:101D00006268C0F2938054484FF00A0E15E02068D4
:101D10002B6810F0800F53F8041B02D1400648BF17
:101D200089B26F2A4C482B6014BF4FF00A0E4FF057
:101D3000080E0023626884F84330002AA26051DB59
:101D4000236823F00403236000294BD1002A7BD1B0
:101D5000E146BEF1080F56D0ACEB0903236183E7DF
:101D60002B681A6804332B6004F1420984F842207E
:101D70000120B4E72B686268191D2960D3F8009030
:101D800000214846FFF7B4FD002863D0A0EB09000E
:101D90006060A4E7236843F02003236078222F4883
:101DA00084F845202A6813F0800F52F8041B03D1F1
:101DB00013F0400F18BF89B22A60DA0744BF43F01E
:101DC0002003236019B9236823F0200323604FF018
:101DD000100EAEE7582384F845301F482368E1E72A
:101DE0002368DBE77546E146B1FBF5F305FB131A03
:101DF0000A46AA4210F80A1009F8011D1946F3D242
:101E0000BEF1080FA8D12368DD07A5D56268236954
:101E10009A42A1DC302309F8013C09F1FF399BE724
:101E200019801EE7B2F90010084668E72D20002A45
:101E3000A26084F8430002DB23F0040323600A2538
:101E400005484942AE46CEE7037884F8423004F1B3
:101E500042097EE7606842E7A8560008BC560008C1
:101E6000704700BF704700BF70B5B1F90C300C4629
:101E7000990796B007D504F147030122C4E904325B
:101E8000236016B070BDB4F90E100029054629DB99
:101E90006A4600F011F9002822DB4FF480612846E1
:101EA000019EFFF7A5FB88B3A389206043F0800360
:101EB00006F47046A381B6F5005F4FF48063C4E971
:101EC0000403DED1B4F90E10284600F057F80028BC
:101ED000D7D0A38923F0030343F00103A381D0E704
:101EE000B4F90C3013F0800F14BF40264FF4806615
:101EF00031462846FFF77CFB40B1A389206043F0C0
:101F00008003C4E90406A38116B070BDB4F90C3097
:101F10009A05B6D423F0030304F1470243F0020309
:101F20000121C4E90421A3812260AAE770B50C460F
:101F3000B1F90E10002996B015461E460FDB6A4611
:101F400000F0BAF800280ADB019B03F47043A3F504
:101F50000053B3FA83F34FF480625B0908E0A2896F
:101F600012F0800F4FF0000314BF40224FF4806244
:101F7000002033602A6016B070BD00BF38B5074D31
:101F80000022044608462A6000F0E8F8431C00D00E
:101F900038BD2B68002BFBD0236038BDC00100206A
:101FA00038B5074D0022044608462A6000F0EEF8D6
:101FB000431C00D038BD2B68002BFBD0236038BDFC
:101FC000C001002010B50C46B1F90E1000F05EF80B
:101FD000002803DB636D0344636510BDA38923F40C
:101FE0008053A38110BD00BF002070472DE9F04150
:101FF0000C46B1F90C101F46CB05054616460BD40E
:1020000021F48051A1813B46B4F90E103246284696
:10201000BDE8F04100F07CB8B4F90E1002230022B4
:1020200000F060F8B4F90C10EAE700BF10B50C46F8
:10203000B1F90E1000F056F8B4F90C30421C0EBF86
:1020400023F4805343F480536065A38110BD00BF27
:10205000B1F90E1000F008B851F8043C181F002B1D
:10206000BCBF0B58C018704738B5074D0022044656
:1020700008462A6000F062F8431C00D038BD2B6887
:10208000002BFBD0236038BDC001002038B50C46C2
:10209000084D8446114620461A4600232B606446AC
:1020A00000F06CF8431C00D038BD2B68002BFBD02F
:1020B000236038BDC001002070B50C46084D0346B2
:1020C0000026204611461C462E6000F03FF8431CB7
:1020D00000D070BD2B68002BFBD0236070BD00BF0B
:1020E000C001002038B50C46084D844611462046F4
:1020F0001A4600232B60644600F038F8431C00D0D9
:1021000038BD2B68002BFBD0236038BDC0010020F8
:1021100038B50C46084D8446114620461A46002321
:102120002B60644600F040F8431C00D038BD2B689B
:10213000002BFBD0236038BDC0010020024B582289
:102140001A604FF0FF307047C0010020024B582248
:102150001A604FF0FF307047C0010020024B582238
:102160001A600020704700BFC0010020024B5822B7
:102170001A604FF0FF307047C0010020024B582218
:102180001A604FF0FF307047C0010020044A054933
:102190001368002B08BF0B461844106018467047A0
:1021A000C40100200C050020024B58221A604FF099
:1021B000FF307047C001002008B500F007F800F0BC
:1021C00087FA00F093FB002008BD00000C4B1B6851
:1021D0000C4AA2FB03239B09013BB3F1807F0DD284
:1021E0004FF0E0225361084BF02183F823100021C7
:1021F00091610720106183F823107047FEE700BF4C
:102200005C000020D34D621000ED00E0034B18602D
:10221000024B1B68002BFBD1704700BFCC01002094
:10222000054A136801331360044B1B681BB1034A52
:102230001368013B13607047C8010020CC010020E7
:10224000014B1868704700BFC8010020FEE7FEE799
:10225000FEE7FEE7FEE7FEE7FEE7704708B5FFF79B
:10226000DFFF08BD08B5012001F0DAF908BD08B5A7
:102270004FF4005002F0A6FB012806D04FF4804036
:1022800002F0A0FB012805D008BD4FF4005001F07A
:10229000C7F9F3E74FF4804001F0C2F9F4E708B55D
:1022A00001F01AFC08BD000010F0010F07D110F07A
:1022B000020F06D110F0040F05D1044870470448FE
:1022C0007047044870470448704700BF185400081E
:1022D00000540008085400081054000810B582B0DB
:1022E0000346084611465A799C79019400921B795D
:1022F000024AFEF77FF902B010BD00BF205400086B
:1023000010B582B0844608461146BCF1000F15DBBB
:1023100020230D4A82FB0C424FEAEC7ECEEB621E7C
:10232000642202FB1ECC0FFA8CF401940FFA8EF497
:102330000094064AFEF75EF902B010BDCCF1000C25
:102340000FFA8CFC2D23E4E71F85EB513054000875
:10235000F0B5BBB0044610220EA92030FFF7BEFF37
:1023600010220AA9B4F92C00FFF7CAFF207CC31E73
:10237000032B00F2D680DFE813F00400560095002E
:10238000B80005A9204600F00EFF002830D00EADA1
:102390001022294605A8FFF7A1FF10220AA9BDF9BE
:1023A0002000FFF7ADFF638E228B01950092013371
:1023B000914A282130A8FEF71DF9BDF81E30009380
:1023C000BDF81C308D4A282126A8FEF713F90AAB68
:1023D0008B4A28211CA8FEF70DF99DF82400FFF771
:1023E00063FF0346874A282112A8FEF703F949E054
:1023F000854A30AB07CA03C31A8026AC834D0FCD84
:102400000FC42B6824F8023B1B0C23701CAC804DBE
:102410000FCD0FC42B68237012AC7E4D0FCD0FC4AF
:102420002B6823802EE094F83420002A32D13E23FA
:10243000012A31D02027022A30D02026032A2FD08B
:10244000202522680092744A282130A8FEF7D2F88D
:10245000636800933B46714A282126A8FEF7CAF814
:10246000A368009333466E4A28211CA8FEF7C2F8E1
:10247000A389A27B019200932B466A4A282112A8C5
:10248000FEF7B8F812AB1CAA26A930A801F080FB11
:102490003BB0F0BD2023CBE73E27CCE73E26CDE77F
:1024A0003E25CEE70EAB604A282130A8FEF7A2F801
:1024B00026AD5E4E0FCE0FC533682B70607C00F0EA
:1024C00019FE03465A4A28211CA8FEF793F8FFF785
:1024D000B7FEE369C31A574AA2FB03239B09564A76
:1024E000282112A8FEF786F8CCE730AD534E0FCE68
:1024F0000FC533682B7026AD514E0FCE0FC5336814
:102500002B600DF1700C4F4D0FCDACE80F002B6818
:10251000ACF80030238B4C4A282112A8FEF76AF849
:10252000B0E7A37B002B30D100F0E4FD034694F824
:10253000222094F82310029101920EAA0092434A9D
:10254000282130A8FEF756F8638D0093238D2B4A7F
:10255000282126A8FEF74EF8A38900930AAB3C4A2F
:1025600028211CA8FEF746F8268B01F05BFD0546E6
:1025700094F83000FFF798FE019000953346354AF5
:10258000282112A8FEF736F87CE700F0B3FD0346D9
:10259000314A282130A8FEF72DF8A37D43B32F4BF5
:1025A000627D3AB3012200922D4A282126A8FEF727
:1025B00021F8A368009323682A4A28211CA8FEF763
:1025C00019F8A58940F6E44303FB05F594F83000BB
:1025D000FFF76AFE244BA3FB0523ED1A03EB55031B
:1025E0000090DB0A214A282112A8FEF703F849E7E8
:1025F0001F4BD5E70022D6E7445400085454000886
:10260000645400086C540008745400088054000896
:1026100094540008A8540008BC540008CC54000886
:10262000DC540008EC540008005500080C55000864
:1026300020550008D34D6210285500083455000875
:10264000485500085C550008705500087C55000886
:102650008C5500089C550008AC5500083C540008F7
:10266000B4550008C455000801011000D8550008F1
:102670004054000810B5044601F0B2FC208301F07C
:10268000D5FCE074A36BB3F1FF3F15D10022A27516
:1026900094F8303003F0F30384F83030E17C19B162
:1026A00043F0040384F830302AB194F8303043F01A
:1026B000080384F8303010BDFFF7C2FDA36BC01AC9
:1026C00041F28833984201D80122E0E70022DEE798
:1026D00070B5FFF7B5FD0546344C6426324600213F
:1026E0002046FDF759FE00F0E5FE01F0D3F901F0B8
:1026F00059F900F087FD01F02BF801F045FA01F0DF
:102700005FFC01F091FA01F06FFB284601F058FAE6
:1027100001F02EFD2660C82363604FF47A73A36036
:102720004FF40063A3810026A673204601F0CCFB82
:1027300000F0FAFDA08900F0E3FD4FF0FF33A36342
:10274000012384F83C30204650F8402B294601F004
:10275000F1FC6268294604F14C0001F0EBFC04F145
:10276000580001F0E1FC2946204600F070FB01F022
:102770004DFB864604F1200C0068DEF80410DEF8FC
:102780000820DEF80C30ACE80F00BEF81030ACF8D2
:1027900000302046FFF76EFF2046FFF7D9FD84F892
:1027A0003C60034801F0D2F970BD00BFD0010020A9
:1027B000EC55000838B5FFF743FD044600F0ACFEC9
:1027C00001F0DAF900283AD100F022FF00283DD1CB
:1027D000454D2146284600F0BFF92146284600F025
:1027E0005BFB2B7C053BDBB2012B3DD83E4D2846E5
:1027F000FFF740FF2B7C022B4DD03B4B197C05296A
:1028000061D1394B1B7C062B68D0374D21462846B9
:1028100000F0E6FB95F83C302BB9214605F14C0061
:1028200001F08FFC30B1304C2046FFF791FD0023C2
:1028300084F83C302C4B1B7C052B52D038BD2A4DE4
:10284000AC63204601F0C2F9EC61BDE7204601F01F
:10285000C3F9254BDC611B7C052BB9D122482246EC
:10286000417C00F0ACFAB3E7214605F1400001F0ED
:1028700068FC0028BAD001F0C9FA84462035006807
:10288000DCF80410DCF80820DCF80C300FC5BCF8CC
:1028900010302B80AAE7214605F1580001F051FCC9
:1028A0000028AAD0284600F04DFC0028A5D12846D3
:1028B00095F8303043F0040385F83030224601218A
:1028C00000F07DFA99E7204601F08CF9002898D0B5
:1028D00022460521044800F072FA92E701F05EFCFE
:1028E00093E700F036FFA9E7D001002008B5FFF715
:1028F00061FFFCE70278407840EA022070470B0A4B
:10290000037041707047000002880A4BA3FB02C3AA
:102910005B094FF0640C0CFB13220A7083784B7038
:10292000C3788B700379CB7043790B7183794B71CA
:10293000704700BF1F85EB5110B584B00446018D70
:1029400001A8FFF7DCFF618D0DF10600FFF7D7FF4F
:10295000B4F92C1089B202A8FFF7D1FFE18D0DF177
:102960000A00FFF7CCFF94F830308DF80C300922C4
:1029700001A9012001F0FEF904B010BD10B584B02A
:102980000446837C03B10123E27C0AB143F00203D5
:10299000227D0AB143F00403A27D0AB143F008038B
:1029A000627D0AB143F01003227C8DF804208DF87B
:1029B0000530218B0DF10600FFF7A1FF218802A849
:1029C000FFF79DFF21890DF10A00FFF798FFA1890C
:1029D00003A8FFF794FF0A2201A9092001F0CAF910
:1029E00004B010BDF0B5B3B04B78022B0AD9054640
:1029F0000C46881CFFF77EFF217941B1062907D9D3
:102A0000062105E00221072001F0E2F99FE0012103
:102A100017AA01F0E9FA8DF80000002101228BE0ED
:102A200001EBC10332AC04EB430333F86CEC561CEE
:102A3000484CA4FB0E4C4FEA5C1C642404FB1CEEC7
:102A400002F1C8046C4404F8C8EC02F1020C13F85B
:102A50006AEC32AC14FA86F404F8C8ECD41C13F80F
:102A6000696C0DF1C80E1EFA8CFC0CF8C86C02F1F2
:102A7000040C13F8686C1EFA84F404F8C86C541D36
:102A800013F8676C1EFA8CFC0CF8C86C02F1060C8B
:102A900013F8666C1EFA84F404F8C86C33F8646C9E
:102AA000D41D4FEA162E32AF17FA8CFC0CF8C8EC86
:102AB00002F1080C17FA84F404F8C86C33F8626C5D
:102AC00002F109044FEA162E17FA8CFC0CF8C8EC38
:102AD00002F10A0C17FA84F404F8C86C33F9606C3C
:102AE00002F10B04C6F3072E17FA8CFC0CF8C8ECA5
:102AF00002F10C0C17FA84F404F8C86C33F85E6C1D
:102B000002F10D044FEA162E17FA8CF303F8C8EC05
:102B100002F10E0317FA84F404F8C86C0F3292B273
:102B200001EBC10407EB440414F85C4C17FA83F37F
:102B300003F8C84C013189B28142FFF471AFD2B2BF
:102B40006946072001F016F9012385F83C3033B0BF
:102B5000F0BD00BF1F85EB5170B59EB005460C4619
:102B600005A801F065F8002800F0CB80204601F0B0
:102B70002DF8EC619DF81400431E0A2B00F2BD8075
:102B8000DFE803F0060A2556637E888D9599A50037
:102B90002846FFF7D1FEE3E79DF81530022B04D05D
:102BA0000221084601F014F9DAE70DF11600FFF7EB
:102BB000A1FEA88100F0A4FB284601F0CDF9012375
:102BC00085F83C300021022001F002F9C8E79DF8A9
:102BD0001530062B04D00221032001F0F9F8BFE7DD
:102BE0009DF8163003F5FA63ADF80C309DF81730F8
:102BF0008DF80E309DF818308DF80F309DF8193093
:102C00008DF810309DF81A308DF811309DF81B307A
:102C10008DF8123000268DF8136003A800F05EFED8
:102C2000012385F83C303146032001F0D1F897E7C5
:102C300003A800F0E9FE01A903A8FFF765FE06223C
:102C400001A9042001F096F88AE79DF81530022BBF
:102C500009D022460221284600F0B1F800210520C3
:102C600001F0B6F87CE70DF11600FFF743FEA8600F
:102C700010B94FF47A73AB60284601F06DF9E8E7BC
:102C800022460121284600F09AF80021062001F092
:102C90009FF865E705A92846FFF7A4FE60E72846E8
:102CA00000F0A4FA0021082001F092F858E7284625
:102CB000FFF764FE54E701F065FA22460621284634
:102CC00000F07DF800210A2001F082F848E79DF825
:102CD0001530012B04D002210B2001F079F83FE7D9
:102CE00022469DF81610284600F0C6F80028F2D0BB
:102CF00000210B2001F06CF832E7012101F068F8A7
:102D00002EE71EB070BD022805D0032805D001288B
:102D100005D102207047032070470420704701202E
:102D2000704710B5044690F83430012B17D0022BB1
:102D300023D0002B35D1036864330360B3F57A7F69
:102D400001D964230360204650F8402B01F0F2F9CA
:102D5000204601F001F9012384F83C3010BD43689E
:102D600064334360B3F57A7F01D9642343606268BA
:102D700004F14C0001F0DEF9EAE7836803F5FA7329
:102D8000836041F28832934202D94FF4FA73836030
:102D9000A37C002BDCD0A26804F1580001F0CAF932
:102DA000D6E7838903F580739BB28381B3F5805F97
:102DB00001D300238381A08900F0A2FAC8E7037C35
:102DC0008B4242D070B504460D461646022B16D0F3
:102DD000052D1AD0237C052B1CD0022D1DD0032DD0
:102DE00024D0062D2CD0002363752574304600F0C6
:102DF000EDFEE661012384F83C30012070BD002324
:102E00008374583001F090F9E2E7237C6374012366
:102E10002375E2E700232375DFE70123A374A2688B
:102E2000314604F1580001F085F9D8E7238B0BB93E
:102E30006386D6E7628E9342D3D8013B6386D0E7A0
:102E40000123637501F09EF9CFE70120704708B5B3
:102E50000A464FF0000C80F810C00121417480F840
:102E600012C080F813C080F814C080F815C080F834
:102E700034C0FFF7A4FF08BD08B5062909D8DFE86C
:102E800001F004040505050505000121FFF797FF82
:102E900008BD0020FCE700002DE9F041044688460B
:102EA000002000F09DFB0546012000F099FB06463E
:102EB000022000F095FB07460DB906B920B1404647
:102EC00000F084FEC4F81C80012E0BD0022E1CD012
:102ED000012F20D0022F38D0012D4BD0022D74D0DD
:102EE000BDE8F081207C052809D00628F0D0FFF746
:102EF0000AFF014642462046FFF761FFE8E74246E7
:102F0000617C2046FFF75BFFE2E742460621204650
:102F1000FFF755FFDCE7237C042B0DD0032B10D0EB
:102F2000A37BB3FA83F35B09A373204601F014F883
:102F3000012384F83C30CFE741462046FFF7F1FEFD
:102F4000CAE7204600F038F9C6E7237C042B0BD0F3
:102F5000A37BB3FA83F35B09A373204600F0FCFF65
:102F6000012384F83C30B7E7424601212046FFF7B1
:102F700026FFB1E7237C033B032B20D801A252F8A4
:102F800023F000BFAB2F0008952F0008B32F0008D7
:102F9000E12E000894F83430013303F0030384F881
:102FA0003430012384F83C309AE7204600F011F9D0
:102FB00096E74246617C2046FFF701FF90E74246D4
:102FC00001212046FFF7FBFE8AE7237C022B87D0F6
:102FD000062B85D0424605212046FFF7F0FE7FE70D
:102FE0002DE9F0410546424BA3FB0123C3F34016F4
:102FF000C3F3C00490F8303003F0030713F0030864
:1030000018BF4FF00108037C013B052B62D8DFE8B5
:1030100003F00313222F3C543146002000F0EAFA5B
:103020000021012000F0E6FA07B9AC7D214602201C
:1030300000F0E0FABDE8F0810121002000F0DAFAAA
:103040002146012000F0D6FA07B9AC7D21460220C6
:1030500000F0D0FAEEE70021084600F0CBFA314646
:10306000012000F0C7FAA97D022000F0C3FAE1E7D1
:103070003146002000F0BEFA0121084600F0BAFAFD
:103080004146022000F0B6FAD4E7194BA3FB012316
:10309000DB094FF4FA6202FB13133B2B8CBF0021B8
:1030A0000121002000F0A6FA0021012000F0A2FA80
:1030B0000021022000F09EFABCE70021084600F043
:1030C00099FA0021012000F095FA2146022000F033
:1030D00091FAAFE70021084600F08CFA00210120A8
:1030E00000F088FA0021022000F084FAA2E700BF75
:1030F000D34D6210062811D8DFE800F0041206084C
:103100000A0C0E0007487047074870470748704789
:103110000748704707487047074870470748704797
:10312000074870471856000824560008285600081B
:103130002C5600083056000834560008385600084F
:103140002056000830B587B004460DF1040C00F19C
:10315000200EBEE80F00ACE80F00DEF80030ACF83F
:103160000030E37C2BB19DF8143043F004038DF85C
:10317000143001A800F028FF054630B90123E3749C
:103180000323E375284607B030BD00F029FF2083F4
:1031900000F04CFFE074238B0BB1013B63860123ED
:1031A00084F83C30EEE708B5038B0BB9002008BD6E
:1031B000408E00F00DFFFAE7028B4AB1438E0133D7
:1031C000B3FBF2F102FB11334386012380F83C305C
:1031D0007047038B33B1428E2AB9013B43860123EA
:1031E00080F83C307047013A4286F8E710B5044653
:1031F00000F0F2FE00232383E3746386012384F846
:103200003C3010BD10B540F6024001F013FD41F214
:10321000081001F00FFD012300220321194801F0DD
:10322000E3FB01F010FA4FF4403001F017FA164CAE
:1032300000224FF48071204601F020FA0022022182
:10324000204601F01BFA0021204601F044FA00213B
:10325000204601F054FA01221146204601F057FAA7
:1032600007230A220021204601F072FA00220121E0
:10327000204601F0C0FA204601F038FA0120FEF79E
:10328000C5FF10BD000802400020014010B5094CE8
:103290000221204601F0DFFA0121204601F0C2FAA6
:1032A0000221044801F0D0FA0028F9D0014801F0C9
:1032B000C8FA10BD0020014040F6E44303FB00F0D3
:1032C000044BA3FB0023C01A03EB5000C0F3CF2034
:1032D000704700BF01011000B0F5FA7F0AD940F62F
:1032E000C313984208D8A0F5FA7000EB80004000A4
:1032F00000B270470020704744F62060704700001D
:1033000008B50346B0F5805F01D340F6FF73044A69
:10331000138000221146034801F0CEFA08BD00BF19
:10332000340200200074004010B54FF4406001F0FA
:1033300081FC41F21D0001F07DFC102300220321DD
:103340000B4801F051FB0B4C204601F089FA00219B
:10335000204601F0CCFA0021204601F09FFA00211E
:10336000204601F08DFA4FF40060FFF7C9FF10BD51
:103370000000024000740040014B1888704700BFF5
:10338000340200200268084B9A4201D000207047A6
:103390008388012B01D000207047C388E32B01D91B
:1033A0000020704701207047484C465308B541F251
:1033B0001C0001F03FFC01F035FC40F6124001F02A
:1033C00039FC08BD10B5FFF7F1FF074C4FF48052F0
:1033D00000212046FCF7E0FF044B23600123A3807B
:1033E0000023E38010BD00BF00400240484C46531C
:1033F00008B5FFF7DBFF0448FFF7C4FF00B108BDC5
:10340000FFF7E0FFFBE700BF0040024008B50448BB
:10341000FFF7B8FF10B1024BD88808BD0020FCE7C9
:103420000040024070B50446FFF7C0FFFFF7EEFF13
:10343000E22818D800EBC0010C4A02EB41032668D1
:103440006568D4F808E0D4F80CC042F811605D60FB
:10345000C3F808E0C3F80CC0228A1A820130044B7A
:10346000D880012070BD0020FCE700BF084002406A
:103470000040024038B504460D46FFF7C7FFA042A2
:1034800011D904EBC404094A02EB440352F8144076
:1034900058689968DA682C606860A960EA601B8ADD
:1034A0002B82012038BD0020FCE700BF084002400D
:1034B000E320704738B5002409E0134B1D5D284612
:1034C00000F0CAFF284600F0F5FF0134E4B2022CF8
:1034D000F3D9002411E001210C4B185D00F0F6FF38
:1034E0000B49200101EB041200230B54537093701D
:1034F0005360936013730134E4B2022CEBD9054B93
:1035000000221A7038BD00BFE0560008DC560008E3
:10351000380200203602002070B5064600240DE077
:103520002C4B03EB05139B78002B38D1294B03EB75
:10353000051301221A7332E00134E4B2022C48D898
:103540002546254B185D01F001F8B0FA80F35B09C0
:10355000204A02EB041252789A4204D01D4A02EB30
:103560000412537056601B4B03EB05135B68F31A90
:103570001D2B14D9174A2B0102EB0511D25C4B7895
:103580009A420CD02A0113498B54002BC8D001EB6E
:1035900005139E6000229A70104B01221A702B01B5
:1035A0000C4AD35C002BC7D002EB05139B78002B91
:1035B000C2D102EB05139B68F31AB3F5966FBBD328
:1035C00002EB051302221A7301229A70034B1A7040
:1035D000B2E770BD38020020DC5600083602002039
:1035E000034B03EB0013187B00221A73704700BFD4
:1035F0003802002008B521B1044B185C00F04EFFE2
:1036000008BD024B185C00F055FFF9E7E0560008D2
:10361000024B187800221A70704700BF3602002053
:1036200008B5002301E00133DBB2022B0AD8064AB9
:1036300052F823208242F6D1104601F0CFF9034B15
:1036400001221A7008BD00BFD056000836020020C3
:1036500038B504460D460846FCF732FE202800D94E
:103660002020002302E02022E25401331F2B03D844
:103670009842F8D9EA56F7E7002384F8203038BD9D
:1036800070B500240FE004EB4416084D35442022A9
:1036900011462846FCF780FE002385F82030044AB6
:1036A00093550134E4B2032CEDD970BDEC02002037
:1036B0006802002008B5FFF7E3FF842202490348AF
:1036C000FCF7BCFE08BD00BFEC0200206802002031
:1036D000032800D9704708B500EB4010024B18448E
:1036E000FFF7B6FF08BD00BFEC02002010B582B0A6
:1036F0000024032C0CD804EB44102122104901446F
:10370000104B1844FCF7BEFF30B90134E4B2F0E7C7
:1037100000231BB902B010BD0123FAE70A4BA3F145
:10372000420403F121020092A3F12102214607483D
:10373000FCF7E6FF842221460148FCF77FFEE9E71B
:1037400068020020EC0200202E0300203C560008F6
:10375000704708B5002001F057FA08BD064BA3FBDF
:103760000023DB081A01D2B203EB8303A0EB430072
:103770001043C0B2704700BFCDCCCCCC030903EBE3
:10378000830300F00F0000EB4300C0B2704700005D
:1037900010F0030F14D10D4BA3FB00235B0964222F
:1037A00002FB13039BB26BB9084BA3FB0023DB099D
:1037B0004FF4C87202FB130080B228B1002070479A
:1037C0000020704701207047012070471F85EB5192
:1037D00010B54B1E054AD45C022901D0204610BD0D
:1037E000FFF7D6FF0028F9D01D24F7E7E4560008BC
:1037F00000B5022938D80123C01A022900D80C319B
:103800001A4BA3FB003E4FEA5E1C642303FB1C0C17
:103810004FEA5E13013101EB410001EB80011448D6
:10382000A0FB010102EB9102624402EB9C0202EB5D
:10383000DE1203EB83031A440E48A0FB0213D11AD5
:1038400003EB51039B08C3EBC303D31A0533A0FB5F
:1038500003201A1A00EB52008008C0EBC000181AAF
:103860000130C0B25DF804FB0023C5E71F85EB51B2
:10387000CDCCCCCC2549922438B504460088A0F59F
:10388000FA639BB2632B15D8A1784B1EDBB20B2BCE
:1038900012D8E57895B1FFF79BFF854210D82379C0
:1038A000172B0FD863793B2B0ED8A3793B2B0DD860
:1038B000012000E0002038BD0020FCE70020FAE7EE
:1038C0000020F8E70020F6E70020F4E70020F2E708
:1038D00000F1805000F6142080007047F0B589B0E8
:1038E000024601AB0068516803C301A8FFF7C4FF9B
:1038F00008B909B0F0BDBDF804409DF806709DF808
:103900000760324639462046FFF772FF05468DF8BC
:103910000B001B4BA3FB04235B09642202FB134433
:10392000E0B2FFF71BFF8DF80C003846FFF716FFDB
:103930008DF80D003046FFF711FF8DF80E008DF861
:103940000F509DF80800FFF709FF8DF810009DF853
:103950000900FFF703FF8DF811009DF80A00FFF73B
:10396000FDFE8DF812007F23ADF81430FF23ADF873
:10397000163000230693079303A801F03DFBB8E738
:103980001F85EB5100B583B0054A6B4692E80300F2
:1039900083E803001846FFF7A1FF03B05DF804FBBE
:1039A000E053000808B541F21C0001F043F901F0B2
:1039B00039F9134BD3F85028124B9A4218D04FF4D0
:1039C000E85001F06BF94FF4E85001F0F9F94FF4C9
:1039D000007001F057F941F60F4001F02BF901F0AA
:1039E000DBFAFFF7CFFF064B064AC3F8502808BDA5
:1039F00041F60F4001F01EF901F0CEFAF7E700BFE3
:103A000000200040434D324710B586B0044601A85F
:103A100001F046FB9DF80400FFF7B0FE00F5FA60E8
:103A200020809DF80500FFF7A9FEA0709DF8060014
:103A3000FFF7A4FEE0709DF80800FFF79FFE2071DD
:103A40009DF80900FFF79AFE60719DF80A00FFF7E4
:103A500095FEA0719DF80730E37106B010BD1328E4
:103A600004D808B5FFF734FF006808BD0020704790
:103A7000132800D9704738B504460D4641F21C00A2
:103A800001F0D8F801F0CEF82046FFF721FF0560DD
:103A900038BD000038B50C4D284600F065FD4FF4E8
:103AA00080720A490A4800F003FB0024094B1C708D
:103AB00040F20531284601F060FC22460121252014
:103AC00001F060F838BD00BF001001408003002005
:103AD000740300207003002008B509E0084801F0D5
:103AE0003CFCC1B2074800F0E9FA074B01221A700A
:103AF0000649034801F04DFC0128EFD008BD00BF86
:103B0000001001407403002070030020050305002D
:103B100008B50146014800F0EAFA08BD7403002028
:103B200070B506460D4600240BE0315D064801F0F5
:103B300010FC0721044801F014FC0028F9D00134DE
:103B4000A4B2AC42F1D370BD0010014010B50446E0
:103B50000AE0C9B2074801F0FCFB0721054801F063
:103B600000FC0028F9D0013494F900100029F0D1AC
:103B700010BD00BF00100140024B187800221A70DF
:103B8000704700BF7003002008B5FFF793FD08BD24
:103B900070B50E4615461C4601460020FFF798FDFD
:103BA00031460120FFF794FD29460220FFF790FDE2
:103BB00021460320FFF78CFDFFF798FD70BD000044
:103BC000014B1860704700BF80040020014B186053
:103BD000704700BF80040020014B1860704700BF91
:103BE000800400200346062994BF0020012020B94C
:103BF0004522CA4012F0010F08D1054A12689B1AEB
:103C000043F69720834294BF00200120704700BFF5
:103C10008004002008B5652200210248FCF7BCFBA7
:103C200008BD00BF8404002008B5FFF7F3FF08BDFE
:103C300070B59AB005461BE09DF86730552B17D13B
:103C40004B4B01221A7013E09DF86730AA2B05D068
:103C5000552B0DD0464B00221A7009E0444B02222E
:103C60001A7005E0424B9DF867205A7003221A70C3
:103C70000DF16700FFF74CFF044600286DD03C4B68
:103C80001B78062B71D801A252F823F0393C0008AA
:103C9000493C0008653C0008A93C0008D33C0008EA
:103CA000F73C0008073D00089DF86730304A9370E4
:103CB000002182F86310602B04D833B92C4B052205
:103CC0001A70D5E7FFF7A6FFD2E7294B04221A7036
:103CD000CEE7274A92F863104B1CDBB282F86330C0
:103CE00011449DF86700C87092789342C0D3204B6E
:103CF00005221A70BCE71E4B9DF8672083F86420EC
:103D000006221A70B4E71A4B5A788DF804209E7870
:103D10008DF8056096B9B11C01A800F092F9144B1A
:103D200093F86420C3B29A4205D1C0F307209DF8EE
:103D30006730984209D0FFF76DFF99E73246D91CEA
:103D40000DF10600FCF77AFBE5E7094B5A782A707B
:103D50009A786A7022B9FFF75DFF20461AB070BDED
:103D6000D91CA81CFCF76AFBF5E7FFF753FF7FE7B8
:103D70008404002030B59BB0144655238DF80030E4
:103D8000AA238DF801308DF802008DF803202AB1A6
:103D9000E1B101A8FCF752FB251D00E00425A11CA0
:103DA0000DF1020000F04DF905F168026A4402F8D5
:103DB000680CC0F3072005F169036B4403F8680C35
:103DC000A91C6846FFF7ACFE1BB030BD0425E6E732
:103DD00000B583B08DF80410012201A9FFF7CAFFD6
:103DE00003B05DF804FB000008B54021054800F071
:103DF00047F9054B00221A815A819A81DA811A7497
:103E000008BD00BF00050020EC040020F8B5FFF756
:103E10003DFA0146114800F038F90646FFF74CFA22
:103E20000546B0F5E17F05D340F6F613984212D867
:103E3000002700E002270A4C2046FFF7E5FD268117
:103E400065812846FFF748FAA081FFF795FAE081DF
:103E500027742046F8BD0127EDE700BF00050020CC
:103E6000EC040020884203D3904203D9002070471D
:103E7000002070470120704710B5044641F2883297
:103E800032210068FFF7EEFF0346B0B141F28832FD
:103E900032216068FFF7E6FF034670B142F210720C
:103EA0006421A068FFF7DEFF034630B1A289B2F5B6
:103EB000805F04D2A27B012A03D8184610BD0023DC
:103EC000FBE70023F9E7000070B588B00646012043
:103ED000FFF7C5FD04460220FFF7C1FD1D4B9C42C4
:103EE00003D00024204608B070BD05460320FFF72C
:103EF000B6FD04900420FFF7B2FD05900520FFF702
:103F0000AEFD06900620FFF7AAFD079010210DEBED
:103F1000010000F096F8A84219D1049B0093059B7C
:103F20000193069B0293079BC3F30B02ADF80C2091
:103F3000C3F300438DF80E306846FFF79DFF04463B
:103F40000028CFD06B460FCB86E80F00CAE70024CD
:103F5000C8E700BF3147464310B584B00446FFF7B9
:103F60008BFF08B904B010BD236800936368019308
:103F7000A3680293A27BA38943EA0243039310211F
:103F8000684600F05EF804460C490120FFF770FD1A
:103F900000990320FFF76CFD01990420FFF768FDED
:103FA00002990520FFF764FD03990620FFF760FDE5
:103FB00021460220FFF75CFDD4E700BF31474643AE
:103FC00008B5FFF715FA08BD08B5FFF72BFA08BDCD
:103FD00008B5FFF74FFA08BD08B5FFF7F3F908BDBC
:103FE00008B5FFF713FA08BD2DE9F04105460E4666
:103FF0009046FFF7F5FF0746002401E00134A4B224
:10400000A6420CD92B19BB4209DA04EBC401601992
:1040100008EB410180B2FFF7DBFF0028EED120461C
:10402000BDE8F08108B5FFF743FA08BD10B5FFF70A
:10403000D7FF0446FFF7F6FF844234BF002001207B
:1040400010BD00B586464FF0000C4FF6FF700EE035
:1040500040080133DBB2072B07D810F0010FF7D06F
:104060004AF2010282EA5000F3E70CF1010C8C45A0
:1040700004D21EF80C3058400023ECE75DF804FB36
:10408000002303600171437170470902437933B91A
:104090000160012343710068C0F30F20704703687B
:1040A000C91A027902FB01F103EB11230360F2E765
:1040B000016082800023C38003817047C3889BB264
:1040C00001338288B3FBF2FC02FB1C339BB20289F2
:1040D00092B29A4209D010B4C28892B20468A15434
:1040E000C38001205DF8044B704700207047C288F0
:1040F00092B203899BB29A4210D0026803899BB2A4
:10410000D35C0B7003899BB201338288B3FBF2F15D
:1041100002FB11339BB203810120704700207047DE
:10412000401AC043C00F70470023037043704360C0
:104130008360704701230370437042600A448260C9
:10414000704738B50446037863B10846A568294628
:10415000FFF7E6FF034628B162782AB163681D4481
:10416000A5601346184638BD00222270FAE7000009
:104170000023024A1370024A137070470905002099
:1041800008050020034B01221A70034B00221A700D
:10419000704700BF090500200805002008B5074B3F
:1041A0001B7813B1064B1B7803B108BD0548FFF718
:1041B000CDFC034B01221A70F7E700BF0905002070
:1041C000080500205856000882B00023019302E041
:1041D000019B0133019300EB8003019AB2EB430F83
:1041E000F6D302B07047000082B03A4AD2F80038E5
:1041F00043F48033C2F8003800230133354AD2F843
:10420000002812F4003F03D14FF6FF729342F4D11D
:10421000304BD3F8003813F4003F05D12D4BD3F8C1
:10422000003813F4003FF9D02A4BD3F8402842F06D
:104230008052C3F8402828490A6842F440420A6084
:10424000D3F80828C3F80828D3F8082842F4004215
:10425000C3F80828D3F8082842F4A052C3F8082865
:104260001E4AC3F80428D3F8002842F08072C3F82D
:104270000028184BD3F8003813F0007FF9D0164A05
:10428000136843F480331360134B5B6813F4803F6F
:10429000FAD0114A136843F4003313600E4B5B6885
:1042A00013F4003FFAD00B4AD2F808380193019B6F
:1042B00023F003030193019B43F002030193019B4D
:1042C000C2F80838034BD3F8083813F0080FF9D0B8
:1042D00002B070470030024000700040196440098D
:1042E00008B5FFF781FF08BD30B583B0574AD2F853
:1042F000883043F47003C2F88830554AD2F8003849
:1043000043F00103C2F80038514BD3F8003813F0E2
:10431000020FF9D04E4BD3F8083803F00C03082BEA
:104320002AD04B4CD4F8083823F00303C4F80838DB
:10433000C820FFF749FFD4F8003823F0847323F432
:104340008033C4F80038D4F8003823F48023C4F84C
:1043500000380025C4F80858D4F808383D4BC4F894
:104360000438C4F80C58FFF7BBFF29464FF0006033
:1043700000F03EFC03B030BD0023009302E0009B40
:1043800001330093009B4F2BF9D9314AD2F80838FA
:104390000193019B23F0F0030193019B43F0800301
:1043A0000193019BC2F808380023009302E0009BB0
:1043B00001330093009B4F2BF9D9254AD2F80838D6
:1043C0000193019B23F0F0030193019B43F09003C1
:1043D0000193019BC2F808380023009302E0009B80
:1043E00001330093009B4F2BF9D9194AD2F80838B2
:1043F0000193019B23F0F0030193019B43F0A00381
:104400000193019BC2F808380023009302E0009B4F
:1044100001330093009B4F2BF9D90D4AD2F808388D
:104420000193019B23F0F0030193019B43F0B00340
:104430000193019BC2F808380023009302E0009B1F
:1044400001330093009B4F2BF9D96AE700ED00E0A0
:10445000003002401030002438B504460C4B33F8CD
:10446000100000F0E7FB0B4B53F824500A4B53F8B5
:1044700024402B4600220121204600F0B5FA2B46AD
:1044800002220021204600F0D8FAA56238BD00BF04
:1044900028570008305700083C570008034B53F8D2
:1044A0002030034A52F820209A6170473C57000898
:1044B00030570008034B53F82030034A52F82020AD
:1044C0009A6270473C5700083057000838B50446D8
:1044D0000D46174B33F8100000F0ACFB41F20E1004
:1044E00000F0A8FB134B53F8243000221146124869
:1044F00050F8240000F078FA012D00D038BD0022D9
:1045000002210E4B185700F03DFB0D4B195D0D4B72
:10451000185D00F0F9FD0C4B53F8244001220021F6
:10452000204600F0F3F9204600F058FAE6E700BF15
:1045300008570008105700081C570008F0560008DC
:10454000F4560008F8560008FC56000808B5044B5D
:1045500053F82010034B53F8200000F096FA08BDE2
:10456000105700081C57000838B504464FF4406047
:1045700000F060FB41F2041000F05CFB1E4D4FF4B4
:1045800000720721284600F087FA4FF48062072165
:10459000284600F081FA4FF40073012202212846D8
:1045A00000F022FA4FF4007302220021284600F0A6
:1045B00044FA4FF4806301220221284600F014FAE5
:1045C0004FF4806302220021284600F036FA20468C
:1045D00000F0DAFD4FF4E131204600F043FE042103
:1045E000204600F0B0FE0821204600F0A6FE20463E
:1045F00000F09EFE38BD00BF00000240002103E035
:104600000B4B5B58435004310A480B4B42189A42FB
:10461000F6D30A4A02E0002342F8043B084B9A42D0
:10462000F9D3FFF761FEFBF70FFEFDF7C5FD7047FD
:1046300058570008000000206000002060000020A3
:104640000C050020FEE708B540F6081000F0FFFA60
:1046500040F6081000F008FB08BD0000064BD3F838
:10466000042322F4E022C3F80423D3F804230243F2
:10467000C3F80423704700BF00200140AAB111F421
:10468000807F03D0436843F48073436011F4806FEC
:1046900003D0436843F48063436011F0020F19D0E4
:1046A000836843F002038360704711F4807F03D076
:1046B000436823F48073436011F4806F03D0436830
:1046C00023F48063436011F0020F03D0836823F06A
:1046D00002038360704721B1836843F40063836001
:1046E0007047836823F4006383607047836813F026
:1046F000010F03D1836843F001038360704743686F
:1047000023F04073436043680B43436070470129C3
:1047100002D002290ED07047013A0F2A17D8C36A77
:1047200023F47003C362C36A120502F470021343D8
:10473000C3627047013A032A09D8836B23F44013FC
:104740008363836B120502F4401213438363704743
:1047500010B405291FD8446B01EB81014FF01F0CE9
:104760000CFA01FC24EA0C0C02FA01F141EA0C01FA
:104770004163092A31D8016902EB42024FF0070C6C
:104780000CFA02FC21EA0C0103FA02F20A4302616C
:104790005DF8044B70470B290ED8046B063901EB0A
:1047A00081014FF01F0C0CFA01FC24EA0C0402FA00
:1047B00001F121430163DCE70F29DAD8C46A0C391F
:1047C00001EB81014FF01F0C0CFA01FC24EA0C04F0
:1047D00002FA01F12143C162CBE7122AD8D8C1689D
:1047E0000A3A02EB42020724944021EA0401934072
:1047F0000B43C360CCE7012902D0022909D07047DE
:10480000836823F040538360836843EA02738360C4
:104810007047836823F440138360836843EA02533C
:1048200083607047012902D0022905D07047836850
:1048300043F0804383607047836843F48003836060
:104840007047C06C80B2704703680B4201D10020F2
:10485000704701207047036823EA01030360704733
:1048600008B5064B984200D008BD40F61D0000F088
:10487000EEF940F61D0000F0F7F9F5E7007400408E
:1048800021B9036843F0010303607047012900D098
:104890007047036843F480330360F9E721B9036884
:1048A00023F0020303607047012900D070470368BA
:1048B00023F400330360F9E751B9012A04D0022A36
:1048C00004D03AB983607047C36070470361704792
:1048D000012900D07047012A05D0022A05D0002AFC
:1048E000F8D14361704783617047C361F2E721B932
:1048F000036823F0040303607047012900D0704768
:10490000036823F480230360F9E7000010B42C4B04
:10491000D3F8004C6FEA000C24EA0004C3F8004C02
:10492000D3F8044C24EA0004C3F8044CD3F8084C30
:1049300024EA0004C3F8084CD3F80C4C24EA000421
:10494000C3F80C4C41B101290CD11D49D1F8043CEC
:104950000343C1F8043C05E01949D1F8003C034386
:10496000C1F8003C012A11D0022A1CD05AB9144BBC
:10497000D3F8082C0243C3F8082CD3F80C2C0CEA0B
:104980000202C3F80C2C5DF8044B70470C4AD2F8B5
:10499000083C0CEA0303C2F8083CD2F80C3C034381
:1049A000C2F80C3CEFE7064BD3F8082C0243C3F8DF
:1049B000082CD3F80C2C0243C3F80C2CE3E700BFFF
:1049C00000300140044BD3F8143C034201D00120D5
:1049D00070470020704700BF00300140014BC3F812
:1049E000140C704700300140F0B50568C6684FF000
:1049F000000C03E00CF1010C1FFA8CFCBCF10F0F52
:104A000018D84FF0010E0EFA0CFE1EEA030FF1D07B
:104A10004FEA4C044FF0030E0EFA04FE25EA0E0591
:104A200001FA04F73D4326EA0E0E02FA04F444EAC2
:104A30000E06DFE70560C660F0BD10B5012906D09F
:104A4000416821EA030141608468002105E0416872
:104A500019434160F8E7013189B20F2913D84FF0AB
:104A6000010C0CFA01FC1CEA030FF4D04FEA410CD4
:104A70004FF0030E0EFA0CFE24EA0E0402FA0CFCB0
:104A80004CEA0404E7E7846010BD03690B4201D0DF
:104A9000012070470020704730B5046A456A002342
:104AA00001E001339BB2072B13D84FF0010C0CFA35
:104AB00003FC1CEA020FF4D04FEA830E4FF00F0CF8
:104AC0000CFA0EFC24EA0C0401FA0EFE4EEA040471
:104AD000E7E7082301E001339BB20F2B15D84FF015
:104AE000010C0CFA03FC1CEA020FF4D0A3F1080C31
:104AF0004FEA8C0C4FF00F0E0EFA0CFE25EA0E0555
:104B000001FA0CFC4CEA0505E5E70462456230BD9C
:104B1000002808DB0901C9B200F1604000F56140DE
:104B200080F80013704700F00F000901C9B2014B73
:104B30001954704714ED00E000F00700C0F10703BE
:104B4000042B28BF042300F1040CBCF1060F0DD97F
:104B500003384FF0010C0CFA03F3013B0B40834088
:104B60000CFA00F001381040184370470020F0E7BD
:104B700040F0BF6040F40030014BD860704700BF88
:104B800000ED00E070B504460D461646164BDB6896
:104B900003F4E063B3F5A06F0AD01ED8B3F5407FED
:104BA00006D0B3F5806F03D04FF4A060FFF7E0FFAD
:104BB0000D4BD86832462946C0F30220FFF7BCFFF0
:104BC00001462046FFF7A4FF04F01F020123934093
:104BD0006409064A42F8243070BDB3F5C06FE7D0CF
:104BE000B3F5E06FE0D1E3E700ED00E000E100E0C5
:104BF00021F0604121F07F010143024B9960BFF336
:104C00004F8F704700ED00E0054A136923F004035D
:104C1000136108B930BF704740BF20BF20BF704745
:104C200000ED00E0024A136843F48073136070479C
:104C300000700040830903F1804303F50E331A68C6
:104C400000F01F00012181400A431A607047830968
:104C500003F1804303F50E331A6800F01F000121B1
:104C600081400A431A607047830903F1804303F5CA
:104C70000E331A6800F01F000121814022EA010270
:104C80001A607047044AD2F8703823F44073034323
:104C9000C2F87038704700BF00300240830903F14A
:104CA000804303F50E331A6800F01F000121814094
:104CB0000A431A607047000010B588B08446344C2F
:104CC00094E80F000DF1200E0EE90F0002AB103436
:104CD00094E8030083E803006B4683E803002D4B50
:104CE000D3F80838C3F38103012B44D0022B44D1FD
:104CF000284AD2F8044804F03F04D2F80418C1F35B
:104D00008811D2F80438C3F3014301335B00D2F8B1
:104D1000042812F4800F2CD01F48B0FBF4F001FBE4
:104D200000F0B0FBF3F01B49D1F80838C3F30313CC
:104D300020336B4413F8102C20FA02F2D1F8083813
:104D4000C3F3822320336B4413F8183C22FA03F494
:104D5000D1F80838C3F3423320336B4413F8203CB6
:104D600022FA03F3BCF1030F09D8DFE80CF00B0AB9
:104D70000D0F0A48D1E70848D5E70848D3E70020D7
:104D800000E0104608B010BD2046FBE71846F9E7E2
:104D9000E85300080030024040787D010024F40010
:104DA000830903F1804303F50E331B6800F01F00F5
:104DB000C34013F0010F01D001207047002070475D
:104DC00010B51C2813D81C2800F2B280DFE800F0D0
:104DD00053B0B0B0B0B0B0B0B0B0B0B0B0B0B0B030
:104DE0002FB0B0B0B0B0B0B08BB09CB0AD00B0F5EB
:104DF000E85F67D043F21003984250D0B0F5E05F0F
:104E000002D1002004461AE0002092E01120FFF7B2
:104E1000C7FF013418B94FF6FF739C42F6D1112039
:104E2000FFF7BEFF002800F08480012081E0002011
:104E30000446EFE741F60140FFF7B2FF013418B92D
:104E40006FF070439C42F5D141F60140FFF7A8FF97
:104E500000286ED001206CE00120FFF7A1FF013493
:104E600010B9B4F5A06FF7D10120FFF799FF002822
:104E70005FD001205DE000200446F1E743F211001D
:104E8000FFF78EFF013410B92A4B9C42F6D143F252
:104E90001100FFF785FF00284BD0012049E00020DA
:104EA0000446F0E741F60150FFF77AFF013410B9EC
:104EB000204B9C42F6D141F60150FFF771FFC0B381
:104EC000012036E000200446F1E71920FFF768FFD3
:104ED000013410B9174B9C42F7D11920FFF760FF3E
:104EE00038B3012025E000200446F2E71B20FFF73D
:104EF00057FF013410B90F4B9C42F7D11B20FFF72D
:104F00004FFFB0B1012014E000200446F2E71D205D
:104F1000FFF746FF013410B9064B9C42F7D11D2024
:104F2000FFF73EFF28B1012003E000200446F2E72E
:104F3000002010BDFFFF0F0082B04FF480430193AB
:104F40000F4BD3F80C3813F0400F14D10C4AD2F8A1
:104F50000C3843F08003C2F80C38094BD3F80C2806
:104F600002F04002019B013B01930BB1002AF4D0F7
:104F700022B9002000E0012002B070470120FBE7C9
:104F800000200040034AD2F80C3823F08003C2F816
:104F90000C3870470020004082B04FF4004301936A
:104FA000144BD3F8083813F0200F21D1114BCA222B
:104FB000C3F824285322C3F82428D3F80C2822F05D
:104FC0002002C3F80C280B4BD3F80C2802F0200267
:104FD000019B013B01930BB1002AF4D032B90020B0
:104FE000044BFF22C3F8242802B070470120F7E7E2
:104FF0000120F9E70020004070B504460278C3782C
:105000005B039BB243EA02434278120202F4F85275
:105010001343827802F03F0243EA0205C368027933
:10502000120402F47C1213434279120202F4FE428B
:105030001343827902F07F0243EA0206174BCA2229
:10504000C3F824285322C3F82428FFF775FF20B99A
:10505000124BFF22C3F8242870BD2289120402F4E7
:10506000FE026389C3F30E031A430C4BC3F81028E6
:10507000C3F80068C3F80458D3F8082822F04002A7
:10508000C3F80828D3F8082821690A43C3F8082878
:10509000FFF778FFFFF780FFDAE700BF002000404E
:1050A00010B4184CD4F80038D4F80428D4F81018E8
:1050B000D4F80848C2F3074C80F800C0C2F3042CAF
:1050C00080F801C002F03F0C80F802C0C2F3423207
:1050D000C270C3F305420271C3F30622427103F0AA
:1050E0007F028271C1F306420281C1F30E01418148
:1050F00003F48003C36004F0400404615DF8044BD2
:10510000704700BF0020004001F003039B000F2206
:105110009A40D24398408908032932D8DFE801F049
:10512000020E1A26174BD3F808180A40C3F80828AD
:10513000D3F808280243C3F808287047114BD3F866
:105140000C180A40C3F80C28D3F80C280243C3F803
:105150000C2870470B4BD3F810180A40C3F81028DE
:10516000D3F810280243C3F810287047054BD3F832
:1051700014180A40C3F81428D3F814280243C3F8BB
:10518000142870470030014008B5334B98425AD07C
:1051900021D8A3F5305398424CD010D8A3F5006322
:1051A000984235D003F58063984230D140F6120022
:1051B000FFF74DFD40F61200FFF756FD27E0274BA5
:1051C000984224D140F61400FFF741FD40F6140048
:1051D000FFF74AFD1BE0224B984210D003F5806395
:1051E00098421ED0A3F51843984210D140F61F00F4
:1051F000FFF72DFD40F61F00FFF736FD07E040F6F4
:105200000410FFF724FD40F60410FFF72DFD08BD44
:1052100040F61100FFF71BFD40F61100FFF724FDDB
:10522000F5E740F60510FFF712FD40F60510FFF711
:105230001BFDECE740F61300FFF709FD40F61300F5
:10524000FFF712FDE3E740F61E00FFF700FD40F612
:105250001E00FFF709FDDAE700780040005000402B
:105260000010014038B504460D462E4B98424DD0F3
:105270001BD8A3F53053984244D00DD8A3F5006352
:1052800098423BD003F58063984203D10220FFF798
:1052900013FD1EE000201CE0234B984203D10220A6
:1052A000FFF70AFD15E0002013E0204B98420DD0D7
:1052B00003F5806398421DD0A3F51843984203D1AB
:1052C0000220FFF7F9FC04E0002002E00320FFF7D2
:1052D000F3FCE36813F4004F1CD06B0803EB4003AE
:1052E000B3FBF5F34FF6F0721A40C3F342031343D6
:1052F000A36038BD0320FFF7DFFCEAE70220FFF7D9
:10530000DBFCE6E70220FFF7D7FCE2E70220FFF72D
:10531000D3FCDEE700EB5500B0FBF5F080B2A060F7
:10532000E7E700BF00780040005000400010014057
:10533000C36843F40053C3607047C36823F0080395
:105340000B43C3607047C36823F004030B43C3607F
:105350007047C1F30801416070474068C0F308001E
:1053600070478B091B5801F01F01CB4013F0010F50
:1053700001D001207047002070474FEA911C5CF873
:10538000003001F01F0101228A4013434CF8003025
:10539000704710B4C1F389131C5801F01F02012398
:1053A00003FA02F214408A0D1258C1F304418B40F3
:1053B0001A4202D02CB9002000E000205DF8044B16
:1053C00070470120FAE70000F8B500BFF8BC08BC40
:1053D0009E467047F8B500BFF8BC08BC9E467047B3
:1053E000EA070101000000040000000000000000C6
:1053F000010203040607080900000000010203047B
:105400004F50454E00000000534852540000000029
:1054100046554C4C000000004E4F524D000000001D
:10542000253032753A253032753A25303275000014
:1054300025632533642E2530326443004F4E00002F
:105440004F46460052504C2025752F257520257358
:10545000000000004144433A25347520563A253473
:10546000756D5600544D503A2573000053543A253B
:105470007300000052504C20454D5054590000001C
:105480004E6F20686973746F7279207265636F72F2
:10549000647300004E4558542F57414B45206272AB
:1054A0006F777365000000004D4F444520737769A6
:1054B0007463682073746174650000002563205371
:1054C0004D503A25346C756D7300000025632044FF
:1054D00053503A25346C756D7300000025632052DB
:1054E00045433A25346C756D7300000025632044F4
:1054F00041433A2534752050673A25750000000075
:10550000534C4545502025730000000057616B65E2
:10551000206279206B65792F75617274000000003C
:10552000507265763A25730049646C653A256C754E
:1055300073000000424F4F544C4F4144455220529B
:105540004541445900000000554152542075706790
:10555000726164652077696E646F7700434D442003
:1055600030783041206163636570746564000000C9
:105570005265636F7264733A2575000025732025A8
:105580007320253032752F2530327500544D503A36
:105590002573204441433A25347500005245433A6F
:1055A00025752F25752025730000000050673120D8
:1055B00025730000554152543A257320426F6F7491
:1055C0003A257500536D703A256C756D73205265E0
:1055D000633A256C756D73004441433A25756D56E9
:1055E000204661756C743A25730000000D0A496EFF
:1055F000647573747269616C206163717569736934
:1056000074696F6E206669726D776172652072656C
:105610006164792E0D0A0000494E495400000000D3
:105620004D4F4E005245430052504C0043464700F8
:10563000534C5000424F5400554E4B000D0A5B4FE7
:105640004C45445D0D0A25730D0A25730D0A25731B
:105650000D0A25730D0A00000D0A5B424F4F545D81
:105660002055706772616465207374616E6462793D
:105670002E2057616974696E6720666F72206669B3
:10568000726D776172652073747265616D2E0D0A9B
:1056900000000000232D302B20000000686C4C001F
:1056A000656667454647000030313233343536375A
:1056B000383941424344454600000000303132331E
:1056C000343536373839616263646566000000003E
:1056D0000100000000200000004000000001020066
:1056E000000102001F1C1F1E1F1E1F1F1E1F1E1F4A
:1056F00006282800000D0E00000201000100000035
:105700000020000000400000000C020C010C000012
:1057100001000000002000000040000000000240E6
:105720000008024000040240040C040C050C0000B8
:105730000400000008000000000400000010024007
:085740000010024000140240B9
:0857480078ABFF7F01000000B7
:045750002902000822
:045754000102000846
:1057580004000020000000007C000020E40000207D
:105768004C010020000000000000000000000000C4
:105778000000000000000000000000000000000021
:105788000000000000000000000000000000000011
:105798000000000000000000000000000000000001
:1057A80000000000030000007C00002000C2EB0B9A
:04000005080045FDAD
:00000001FF
